:020000040800F2
:100000001010002005010008AF020008A702000838
:10001000AB0200084D010008C10500080000000007
:10002000000000000000000000000000F5030008D0
:100030005101000800000000B1020008E1040008BE
:100040001F0100081F0100081F0100081F01000810
:100050001F0100081F0100081F0100081F01000800
:100060001F0100081F0100081F0100081F010008F0
:100070001F0100081F0100081F0100081F010008E0
:100080001F0100081F0100081F0100081F010008D0
:100090001F0100081F0100081F0100081F010008C0
:1000A0001F0100081F0100081F0100081F010008B0
:1000B0001F0100081F0100081F0100081F010008A0
:1000C0001F0100081F0100081F0100081F01000890
:1000D0001F0100081F0100081F0100081F01000880
:1000E0001F0100081F0100081F010008DFF810D0E1
:1000F00000F01AF80048004715060008AFF300802A
:10010000101000200648804706480047FEE7FEE73B
:10011000FEE7FEE7FEE7FEE7FEE7FEE7FEE7FEE7B7
:1001200061050008ED000008064C074D06E0E06898
:1001300040F0010394E8070098471034AC42F6D32E
:10014000FFF7D8FF680600088806000800BFFEE732
:10015000704700000549096821F01001034A116049
:1001600011460968014311607047000000200240F9
:1001700001460020034A106800F038000843106070
:1001800070470000002002402DE9F04102460025A2
:100190000026002000230024002791F803C00CF063
:1001A0000F0591F803C00CF0100CBCF1000F03D048
:1001B00091F802C04CEA050591F800C0BCF1000FAF
:1001C00031D0146800202BE04FF0010C0CFA00F342
:1001D000B1F800C00CEA03069E4220D183004FF024
:1001E0000F0C0CFA03F7BC4305FA03FC4CEA0404B9
:1001F00091F803C0BCF1280F06D14FF0010C0CFAA6
:1002000000FCC2F814C00AE091F803C0BCF1480F2A
:1002100005D14FF0010C0CFA00FCC2F810C0401CD4
:100220000828D1D31460B1F800C0BCF1FF0F34DD51
:10023000546800202EE000F1080C4FF0010808FA85
:100240000CF3B1F800C00CEA03069E4221D18300F2
:100250004FF00F0C0CFA03F7BC4305FA03FC4CEA11
:10026000040491F803C0BCF1280F05D100F1080C7B
:1002700008FA0CF8C2F8148091F803C0BCF1480FDA
:1002800007D100F1080C4FF0010808FA0CF8C2F889
:100290001080401C0828CED35460BDE8F081416135
:1002A00070470161704700BFFEE700BFFEE770477F
:1002B0007047000029B1064A92690243044B9A61D3
:1002C00004E0034A92698243014B9A61704700003F
:1002D0000010024010B501460022002300204A1100
:1002E000012A02D1094C236806E0022A02D1074CF8
:1002F000236A01E0054C636A01F01F020124944067
:100300001C400CB1012000E0002010BD0010024094
:100310000248406800F00C007047000000100240E6
:1003200001460020034A506820F0F0000843506066
:1003300070470000001002401149096821F4803123
:100340000F4A11601146096821F480211160B0F54F
:10035000803F03D0B0F5802F0ED106E00849096830
:1003600041F48031064A116007E00549096841F40B
:10037000A021034A116000E000BF00BF70470000E9
:100380000010024001460020034A506820F4E0605B
:1003900008435060704700000010024001460020F2
:1003A000034A506820F4605040EAC1005060704732
:1003B00000100240014908667047000000004242F8
:1003C00002460020044B586820F47C1042EA0103E6
:1003D0001843014B5860704700100240014600204E
:1003E000034A506820F00300084350607047000043
:1003F00000100240704710B500F002F810BD000078
:100400000CB50020019000903348006840F4803023
:100410003149086000BF3048006800F400300090A7
:100420000198401C0190009818B90198B0F5A06F90
:10043000F1D12948006800F4003010B1012000908B
:1004400001E0002000900098012843D12348006873
:1004500040F01000214908600846006820F00700BD
:1004600008600846006840F0020008601A484068CA
:10047000194948600846406848600846406840F4AA
:10048000806048600846406820F47C104860084658
:10049000406840F4E81048600846006840F080700A
:1004A000086000BF0C48006800F000700028F9D018
:1004B0000948406820F00300074948600846406842
:1004C00040F00200486000BF0348406800F00C00A4
:1004D0000828F9D10CBD00000010024000200240A5
:1004E0000448036840685A1C40F1000001490A6052
:1004F000486070470000002010B50120FFF72AFE79
:100500000220FFF735FE4FF48030FFF715FF00BFE4
:100510003120FFF7DFFE0028FAD04FF4E0114FF44E
:100520008030FFF74DFF0120FFF744FF00BF392067
:10053000FFF7D0FE0028FAD00020FFF7F1FE4FF4BD
:100540008060FFF71FFF0020FFF728FF0220FFF762
:1005500045FF00BFFFF7DCFE0828FBD110BD0000FF
:1005600010B51348006840F00100114908600846C2
:100570004068104908400E494860084600680E4926
:1005800008400B4908600846006820F48020086095
:100590000846406820F4FE0048604FF41F00886061
:1005A000FFF729FF4FF000600449086010BD00000C
:1005B000001002400000FFF8FFFFF6FE08ED00E02B
:1005C00000BFFEE702E008C8121F08C1002AFAD1E6
:1005D00070477047002001E001C1121F002AFBD1C3
:1005E000704742F2283141434FF0E022516100212F
:1005F00091610121116100BF4FF0E021096901F40F
:1006000080310029F8D000214FF0E0221161916182
:100610007047000008B5FFF76FFF01211020FFF7BA
:1006200049FE14208DF8030002208DF8020000031B
:10063000ADF8000069460B48FFF7A6FD11E04FF446
:1006400000510848FFF72BFE4FF47A70FFF7C9FFFF
:100650004FF400510348FFF724FE4FF47A70FFF780
:10066000C0FFECE7001001408806000800000020F1
:100670000C000000C4050008940600080C000020CF
:1006800004100000D4050008000000000000000075
:040690000000000066
:04000005080000ED02
:00000001FF
